:020000020000FC
:0200000045C0F9
:10008C0000E10EBF0FEF0DBF00E001BB03EF02BBA1
:10009C0000BB00E100939A000EE000939D0001E08C
:1000AC000093980000EA00939900A0E0B2E0C4E04D
:1000BC00D2E000919B0007FFFCCF10919C00212FF8
:1000CC00107F2F70103909F0F4CF2D93A43089F7DD
:1000DC0001D0EFCF2E9108E000939A00022F006A16
:1000EC0000939C0044E600E100939A004A9599F332
:1000FC0000919B0007FFFACF10919C00022F006C1F
:10010C001017A1F7A03011F02E91E5CF01D0089572
:10011C002D9108E000939A00022F006B00939C0035
:10012C0044E600E100939A004A9599F300919B00F4
:10013C0007FFFACF10919C0017FDF6CF1993C8302A
:10014C0011F02D91E6CF01D0089510E030E02E9102
:10015C000A91011714F0102F322F2030C1F701D063
:10016C00089508E000939A00032F006F00939C0001
:02017C000895E4
:00000001FF
