:020000020000FC
:0200000045C0F9
:10008C0000E10EBF0FEF0DBF08E000939A000EE0E9
:10009C0000939D0001E00093980000EA0093990002
:1000AC00ECD080E1E6E1F2E0C0E0D1E0059109930B
:1000BC008A95E1F724D180E1E6E2F2E0C0E1D1E0FB
:1000CC00059109938A95E1F72AD100E001BB03E081
:1000DC0002BB09E003BF0EE101BF14D00F930FB7B1
:1000EC000F9308E000939A0001E900939C000091A3
:1000FC009B0005FFFCCF00E100939A000F910FBF0E
:10010C000F910895772780E1E6E4F2E0C0E1D1E0B9
:10011C00059109938A95E1F780E1E6E3F2E0C0E00E
:10012C00D1E0059109938A95E1F7E6D001D00895C5
:10013C0002B70F71E9F3700F072FA0E3B1E035D1CF
:10014C0082E031E029E00D911DD123958A95D9F7F4
:10015C0000B300950370013059F30230C9F780E108
:10016C00E6E5F2E0C0E1D1E0059109938A95E1F76B
:10017C00D6D001D0089500E100939A0000919B0025
:10018C0007FFFCCFF0909C0001EBF012F4CF08E0DD
:10019C0000939A0070939C0094E600E100939A00FF
:1001AC009A95A9F300919B0007FFFACFF0909C0061
:1001BC0001E0006CF016A1F701D0089500E1009366
:1001CC009A0000919B0007FFFCCFF0909C0001EF80
:1001DC000F1529F00F2D007F003F61F0EFCF80E16C
:1001EC00E6E6F2E0C0E1D1E0059109938A95E1F7EA
:1001FC0096D00AC080E1E6E7F2E0C0E1D1E00591DB
:10020C0009938A95E1F78BD008954F53552D41569C
:10021C0052424C41434B4A41434B2046494E444980
:10022C004E472047414D452E2E202053434F5245DB
:10023C003A20202020202020202031203D20535403
:10024C0041597C30203D20484954202020574149B9
:10025C0054494E472E2E2E2020202020594F552019
:10026C00574F4E21203A292020202020594F55202D
:10027C004C4F535421203A2820200F930FB70F9343
:10028C001F9300E008BB0FEF07BB00E002BB00E0D0
:10029C0001BB00E00093620008E00093610000E500
:1002AC000DB901E00EB900E805BF02E400936D0042
:1002BC0000E800936C0000E00BB908E10AB906E015
:1002CC000093950000E00093900007E609B906E062
:1002DC001AEFBFD00A95E1F708E397D008E095D064
:1002EC0001E093D006E091D00CE08FD028D01F9184
:1002FC000F910FBF0F91089502D011D008950F9355
:10030C00EF93FF932F933F93E0E0F1E030E86BD055
:10031C0076D03F912F91FF91EF910F9108950F930C
:10032C00EF93FF932F933F93E0E1F1E030EC5BD040
:10033C0066D03F912F91FF91EF910F91089502D0CC
:10034C0011D008950F933F932F93EF93FF9330E8C1
:10035C004AD0E0E0F1E04CD0FF91EF912F913F912A
:10036C000F9108950F933F932F93EF93FF9330ECDE
:10037C003AD0E0E1F1E03CD0FF91EF912F913F9129
:10038C000F9108950F933F932F93283250F43130EF
:10039C0011F430E803C0323021F430EC320F23D0AA
:1003AC0042D02F913F910F9108950F936F935F93CC
:1003BC00BF93AF93043618F023E0139607C00A30AE
:1003CC0018F022E0129602C0119621E04AD000E308
:1003DC00060F0E93052F0030C9F7AF91BF915F91B7
:1003EC006F910F9108950F93032F0FD00F910895D4
:1003FC0000E220E1019317D02A95E1F7089520E15E
:10040C00019111D02A95E1F708954F931F9340E085
:10041C0013D00F9302E01DEC1CD00A95E1F70F915D
:10042C001F914F9108954F931F9341E005D010E118
:10043C0010D01F914F9108954FB912E00AD00FB907
:10044C0012E007D018E01093620010E010936200E5
:10045C0008950F9309E40A95F1F71A95D9F70F91BE
:10046C0008950F92502F56955695500F5695500F44
:10047C00569556955695500F5695500F5695569530
:10048C005695500F5695500F569556955695569520
:10049C00652F660F660F650F660F062E602F6019AD
:0E04AC006A3018F053956A50FBCF0F900895F8
:00000001FF
