:020000020000FC
:0200000045C0F9
:10008C0000E10EBF0FEF0DBF00E001BB03EF02BBA1
:10009C0000BB00E100939A000EE000939D0001E08C
:1000AC000093980000EA0093990030E0A0E0B2E0E1
:1000BC00C4E0D2E000919B0007FFFCCF10919C00A4
:1000CC00212F107F2F70103909F0F4CF2D93339519
:1000DC00323081F701D0EECF2E9108E000939A00D8
:1000EC00022F006A00939C0044E600E100939A0002
:1000FC004A9599F300919B0007FFFACF10919C0051
:10010C00022F006C1017A1F7A03011F02E91E5CF43
:04011C0001D0089571
:00000001FF
