:020000020000FC
:0200000045C0F9
:10008C0000E10EBF0FEF0DBF0FEF07BB00E008BB89
:10009C0008E100939A000EE000939D0001E00093AC
:1000AC00980000EA0093990023D180E1ECE9F2E09A
:1000BC00C0E0D1E0059109938A95E1F75BD180E12D
:1000CC00ECEAF2E0C0E1D1E0059109938A95E1F701
:1000DC0061D1A0E0B2E0C2E0D2E030E04A95F1F3A9
:1000EC0000919B0007FFFACF10919C0018BB0E9457
:1000FC003E01212F107F2F70103909F0EFCF00EC4B
:10010C00022B00939C0008BB0E943E0100919B00B7
:10011C0005FFFCCF2D933395032FAF93BF933F93E4
:10012C002F93A0E3B1E07CD181E032E02CE00D9183
:10013C0064D123958A95D9F72F913F91BF91AF91B7
:10014C00323061F601D0CACFCF93DF9380E1ECEB74
:10015C00F2E0C0E1D1E0059109938A95E1F71AD15B
:10016C00DF91CF912E91022F006A00939C000E9488
:10017C003E0100919B0005FFFCCF44E64A9599F3A4
:10018C0000919B0007FFFACF10919C00022F006C8E
:10019C001017A1F7A03011F02E91E5CF01D00895E2
:1001AC00CF93DF9380E1ECEDF2E0C0E1D1E005917B
:1001BC0009938A95E1F7EED0DF91CF912D91022F23
:1001CC00006B00939C0008BB0E943E0144E64A95DC
:1001DC00B1F300919B0007FFFACF10919C0018BB64
:1001EC000E943E0117FDF3CF1993012FAF93BF93DC
:1001FC003F932F93A0E3B1E013D182E032E0C430FF
:10020C000FB701FF2CE029E00D91F7D023958A95CB
:10021C00D9F72F913F91BF91AF91C43011F02D912F
:10022C00CECF01D00895CF93DF9380E1ECEEF2E0D6
:10023C00C0E1D1E0059109938A95E1F7ABD0DF914C
:10024C00CF910FEF08BB10E030E02E910A910734EC
:10025C0024F4011714F0102F322FA030B1F701D075
:10026C000895032F006F00939C0008BBFACF0895EC
:10027C005F936F937F9352E370EE6DEE6A95F1F797
:10028C007A95D9F75A95C1F77F916F915F9108953F
:10029C004F53552D415652424C41434B4A41434BCF
:1002AC00202020504C41594552533A2030202020D8
:1002BC00205354415254494E472047414D4520202C
:1002CC002041534B494E472053434F524553202016
:1002DC002053434F5245533A2030302030302020A9
:1002EC002046494E44494E472057494E4E455220D0
:1002FC000F930FB70F931F9300E008BB0FEF07BBD3
:10030C0000E002BB00E001BB00E00093620008E0EB
:10031C000093610000E50DB901E00EB900E805BFDE
:10032C0002E400936D0000E800936C0000E00BB950
:10033C0008E10AB906E00093950000E000939000F4
:10034C0007E609B906E01AEFBFD00A95E1F708E312
:10035C0097D008E095D001E093D006E091D00CE066
:10036C008FD028D01F910F910FBF0F91089502D0FD
:10037C0011D008950F93EF93FF932F933F93E0E0E9
:10038C00F1E030E86BD076D03F912F91FF91EF9157
:10039C000F9108950F93EF93FF932F933F93E0E109
:1003AC00F1E030EC5BD066D03F912F91FF91EF9153
:1003BC000F91089502D011D008950F933F932F936E
:1003CC00EF93FF9330E84AD0E0E0F1E04CD0FF919E
:1003DC00EF912F913F910F9108950F933F932F938E
:1003EC00EF93FF9330EC3AD0E0E1F1E03CD0FF9199
:1003FC00EF912F913F910F9108950F933F932F936E
:10040C00283250F4313011F430E803C0323021F48A
:10041C0030EC320F23D042D02F913F910F910895A1
:10042C000F936F935F93BF93AF93043618F023E051
:10043C00139607C00A3018F022E0129602C01196EB
:10044C0021E04AD000E3060F0E93052F0030C9F7C8
:10045C00AF91BF915F916F910F9108950F93032FFF
:10046C000FD00F91089500E220E1019317D02A9547
:10047C00E1F7089520E1019111D02A95E1F7089553
:10048C004F931F9340E013D00F9302E01DEC1CD050
:10049C000A95E1F70F911F914F9108954F931F9378
:1004AC0041E005D010E110D01F914F9108954FB944
:1004BC0012E00AD00FB912E007D018E010936200D6
:1004CC0010E01093620008950F9309E40A95F1F778
:1004DC001A95D9F70F9108950F92502F569556955E
:1004EC00500F5695500F569556955695500F56954C
:1004FC00500F569556955695500F5695500F56953C
:10050C00569556955695652F660F660F650F660FB7
:10051C00062E602F60196A3018F053956A50FBCF85
:04052C000F9008958F
:00000001FF
