:020000020000FC
:0200000045C0F9
:10008C0000E10EBF0FEF0DBF08E100939A000EE0E8
:10009C0000939D0001E00093980000EA0093990002
:1000AC002AD180E1E2E9F2E0C0E0D1E005910993C8
:1000BC008A95E1F762D180E1E2EAF2E0C0E1D1E0B9
:1000CC00059109938A95E1F768D10FEF07BB00E022
:1000DC0008BB00E001BB03E002BB00BB09E003BFAF
:1000EC000EE101BF01D0FECF0F930FB70F9306E9BE
:1000FC0000939C0008BB0E94390100919B0005FFF6
:10010C00FCCF9FEF9A9569F000919B0007FFFACF07
:10011C00F0909C0006E0006CF016A1F7F8BAA3D0A2
:10012C0004D00F910FBF0F91089580E1E2EDF2E042
:10013C00C0E1D1E0059109938A95E1F72ED10091A8
:10014C009B0007FFF2CFF0909C0006EAF012EDCF77
:10015C0006EC00939C0001D00895772780E1E2EC37
:10016C00F2E0C0E1D1E0059109938A95E1F780E1D5
:10017C00E2EBF2E0C0E0D1E0059109938A95E1F75A
:10018C00F9D001D0089502B70F71E9F3700F072F62
:10019C00A0E3B1E048D182E031E029E00D9130D10B
:1001AC0023958A95D9F7773474F45DD000B3009514
:1001BC000370013041F30230C9F780E1E2EDF2E067
:1001CC00C0E1D1E005C080E1E2EFF2E0C0E1D1E0B6
:1001DC00059109938A95E1F7E0D001D0089500913B
:1001EC009B0007FFFCCFF0909C0006EBF012F7CFC2
:1001FC0070939C0078BB0E9439019FEF9A95C1F3D4
:10020C0000919B0007FFFACFF0909C0006E0006C79
:10021C00F016A1F701D0089500E100939A00009127
:10022C009B0007FFFCCFF0909C0006EF0F1529F008
:10023C000F2D007F003F61F0EFCF80E1E2EEF2E0A6
:10024C00C0E1D1E0059109938A95E1F7A6D00AC0E7
:10025C0080E1E2EFF2E0C0E1D1E0059109938A95EB
:10026C00E1F79BD008951F932F933F931FE730EE38
:10027C002DEE2A95F1F73A95D9F71A95C1F73F91DA
:10028C002F911F9108954F53552D415652424C4179
:10029C00434B4A41434B2046494E44494E47204725
:1002AC00414D452E2E202053434F52453A202020BD
:1002BC0020202020202031203D20535441597C30D7
:1002CC00203D2048495420202057414954494E474D
:1002DC002E2E2E2020202020594F5520574F4E21B6
:1002EC00203A292020202020594F55204C4F535480
:1002FC0021203A2820200F930FB70F931F9300E073
:10030C0008BB0FEF07BB00E002BB00E001BB00E045
:10031C000093620008E00093610000E50DB901E074
:10032C000EB900E805BF02E400936D0000E80093ED
:10033C006C0000E00BB908E10AB906E000939500E7
:10034C0000E00093900007E609B906E01AEFBFD071
:10035C000A95E1F708E397D008E095D001E093D037
:10036C0006E091D00CE08FD028D01F910F910FBFD9
:10037C000F91089502D011D008950F93EF93FF932E
:10038C002F933F93E0E0F1E030E86BD076D03F91D3
:10039C002F91FF91EF910F9108950F93EF93FF938E
:1003AC002F933F93E0E1F1E030EC5BD066D03F91CE
:1003BC002F91FF91EF910F91089502D011D00895D4
:1003CC000F933F932F93EF93FF9330E84AD0E0E0E5
:1003DC00F1E04CD0FF91EF912F913F910F91089547
:1003EC000F933F932F93EF93FF9330EC3AD0E0E1D0
:1003FC00F1E03CD0FF91EF912F913F910F91089537
:10040C000F933F932F93283250F4313011F430E88E
:10041C0003C0323021F430EC320F23D042D02F9174
:10042C003F910F9108950F936F935F93BF93AF9389
:10043C00043618F023E0139607C00A3018F022E0B7
:10044C00129602C0119621E04AD000E3060F0E93DB
:10045C00052F0030C9F7AF91BF915F916F910F914C
:10046C0008950F93032F0FD00F91089500E220E110
:10047C00019317D02A95E1F7089520E1019111D04D
:10048C002A95E1F708954F931F9340E013D00F93F3
:10049C0002E01DEC1CD00A95E1F70F911F914F91D2
:1004AC0008954F931F9341E005D010E110D01F9198
:1004BC004F9108954FB912E00AD00FB912E007D04E
:1004CC0018E01093620010E01093620008950F93EF
:1004DC0009E40A95F1F71A95D9F70F9108950F923F
:1004EC00502F56955695500F5695500F569556952C
:1004FC005695500F5695500F569556955695500F3C
:10050C005695500F5695569556955695652F660FE0
:10051C00660F650F660F062E602F60196A3018F093
:0A052C0053956A50FBCF0F9008951D
:00000001FF
